{
  "contractName": "spaceFART",
  "abi": [
    {
      "inputs": [],
      "stateMutability": "nonpayable",
      "type": "constructor"
    },
    {
      "anonymous": false,
      "inputs": [
        {
          "indexed": true,
          "internalType": "address",
          "name": "owner",
          "type": "address"
        },
        {
          "indexed": true,
          "internalType": "address",
          "name": "approved",
          "type": "address"
        },
        {
          "indexed": true,
          "internalType": "uint256",
          "name": "tokenId",
          "type": "uint256"
        }
      ],
      "name": "Approval",
      "type": "event"
    },
    {
      "anonymous": false,
      "inputs": [
        {
          "indexed": true,
          "internalType": "address",
          "name": "owner",
          "type": "address"
        },
        {
          "indexed": true,
          "internalType": "address",
          "name": "operator",
          "type": "address"
        },
        {
          "indexed": false,
          "internalType": "bool",
          "name": "approved",
          "type": "bool"
        }
      ],
      "name": "ApprovalForAll",
      "type": "event"
    },
    {
      "anonymous": false,
      "inputs": [
        {
          "indexed": true,
          "internalType": "address",
          "name": "from",
          "type": "address"
        },
        {
          "indexed": true,
          "internalType": "address",
          "name": "to",
          "type": "address"
        },
        {
          "indexed": true,
          "internalType": "uint256",
          "name": "tokenId",
          "type": "uint256"
        }
      ],
      "name": "Transfer",
      "type": "event"
    },
    {
      "inputs": [
        {
          "internalType": "uint256",
          "name": "",
          "type": "uint256"
        }
      ],
      "name": "Items",
      "outputs": [
        {
          "internalType": "uint256",
          "name": "id",
          "type": "uint256"
        },
        {
          "internalType": "address",
          "name": "creator",
          "type": "address"
        },
        {
          "internalType": "string",
          "name": "uri",
          "type": "string"
        }
      ],
      "stateMutability": "view",
      "type": "function",
      "constant": true
    },
    {
      "inputs": [
        {
          "internalType": "address",
          "name": "to",
          "type": "address"
        },
        {
          "internalType": "uint256",
          "name": "tokenId",
          "type": "uint256"
        }
      ],
      "name": "approve",
      "outputs": [],
      "stateMutability": "nonpayable",
      "type": "function"
    },
    {
      "inputs": [
        {
          "internalType": "address",
          "name": "owner",
          "type": "address"
        }
      ],
      "name": "balanceOf",
      "outputs": [
        {
          "internalType": "uint256",
          "name": "",
          "type": "uint256"
        }
      ],
      "stateMutability": "view",
      "type": "function",
      "constant": true
    },
    {
      "inputs": [
        {
          "internalType": "uint256",
          "name": "tokenId",
          "type": "uint256"
        }
      ],
      "name": "getApproved",
      "outputs": [
        {
          "internalType": "address",
          "name": "",
          "type": "address"
        }
      ],
      "stateMutability": "view",
      "type": "function",
      "constant": true
    },
    {
      "inputs": [
        {
          "internalType": "address",
          "name": "owner",
          "type": "address"
        },
        {
          "internalType": "address",
          "name": "operator",
          "type": "address"
        }
      ],
      "name": "isApprovedForAll",
      "outputs": [
        {
          "internalType": "bool",
          "name": "",
          "type": "bool"
        }
      ],
      "stateMutability": "view",
      "type": "function",
      "constant": true
    },
    {
      "inputs": [],
      "name": "name",
      "outputs": [
        {
          "internalType": "string",
          "name": "",
          "type": "string"
        }
      ],
      "stateMutability": "view",
      "type": "function",
      "constant": true
    },
    {
      "inputs": [
        {
          "internalType": "uint256",
          "name": "tokenId",
          "type": "uint256"
        }
      ],
      "name": "ownerOf",
      "outputs": [
        {
          "internalType": "address",
          "name": "",
          "type": "address"
        }
      ],
      "stateMutability": "view",
      "type": "function",
      "constant": true
    },
    {
      "inputs": [
        {
          "internalType": "address",
          "name": "from",
          "type": "address"
        },
        {
          "internalType": "address",
          "name": "to",
          "type": "address"
        },
        {
          "internalType": "uint256",
          "name": "tokenId",
          "type": "uint256"
        }
      ],
      "name": "safeTransferFrom",
      "outputs": [],
      "stateMutability": "nonpayable",
      "type": "function"
    },
    {
      "inputs": [
        {
          "internalType": "address",
          "name": "from",
          "type": "address"
        },
        {
          "internalType": "address",
          "name": "to",
          "type": "address"
        },
        {
          "internalType": "uint256",
          "name": "tokenId",
          "type": "uint256"
        },
        {
          "internalType": "bytes",
          "name": "_data",
          "type": "bytes"
        }
      ],
      "name": "safeTransferFrom",
      "outputs": [],
      "stateMutability": "nonpayable",
      "type": "function"
    },
    {
      "inputs": [
        {
          "internalType": "address",
          "name": "operator",
          "type": "address"
        },
        {
          "internalType": "bool",
          "name": "approved",
          "type": "bool"
        }
      ],
      "name": "setApprovalForAll",
      "outputs": [],
      "stateMutability": "nonpayable",
      "type": "function"
    },
    {
      "inputs": [
        {
          "internalType": "bytes4",
          "name": "interfaceId",
          "type": "bytes4"
        }
      ],
      "name": "supportsInterface",
      "outputs": [
        {
          "internalType": "bool",
          "name": "",
          "type": "bool"
        }
      ],
      "stateMutability": "view",
      "type": "function",
      "constant": true
    },
    {
      "inputs": [],
      "name": "symbol",
      "outputs": [
        {
          "internalType": "string",
          "name": "",
          "type": "string"
        }
      ],
      "stateMutability": "view",
      "type": "function",
      "constant": true
    },
    {
      "inputs": [
        {
          "internalType": "address",
          "name": "from",
          "type": "address"
        },
        {
          "internalType": "address",
          "name": "to",
          "type": "address"
        },
        {
          "internalType": "uint256",
          "name": "tokenId",
          "type": "uint256"
        }
      ],
      "name": "transferFrom",
      "outputs": [],
      "stateMutability": "nonpayable",
      "type": "function"
    },
    {
      "inputs": [
        {
          "internalType": "string",
          "name": "uri",
          "type": "string"
        }
      ],
      "name": "createToken",
      "outputs": [
        {
          "internalType": "uint256",
          "name": "",
          "type": "uint256"
        }
      ],
      "stateMutability": "nonpayable",
      "type": "function"
    },
    {
      "inputs": [
        {
          "internalType": "uint256",
          "name": "tokenId",
          "type": "uint256"
        }
      ],
      "name": "tokenURI",
      "outputs": [
        {
          "internalType": "string",
          "name": "",
          "type": "string"
        }
      ],
      "stateMutability": "view",
      "type": "function",
      "constant": true
    }
  ],
  "bytecode": "0x60806040523480156200001157600080fd5b506040518060400160405280600981526020017f73706163654641525400000000000000000000000000000000000000000000008152506040518060400160405280600981526020017f7370616365464152540000000000000000000000000000000000000000000000815250816000908051906020019062000096929190620000b8565b508060019080519060200190620000af929190620000b8565b505050620001cd565b828054620000c69062000168565b90600052602060002090601f016020900481019282620000ea576000855562000136565b82601f106200010557805160ff191683800117855562000136565b8280016001018555821562000136579182015b828111156200013557825182559160200191906001019062000118565b5b50905062000145919062000149565b5090565b5b80821115620001645760008160009055506001016200014a565b5090565b600060028204905060018216806200018157607f821691505b602082108114156200019857620001976200019e565b5b50919050565b7f4e487b7100000000000000000000000000000000000000000000000000000000600052602260045260246000fd5b61293a80620001dd6000396000f3fe608060405234801561001057600080fd5b50600436106100f55760003560e01c806345576f9411610097578063a22cb46511610066578063a22cb465146102ac578063b88d4fde146102c8578063c87b56dd146102e4578063e985e9c514610314576100f5565b806345576f94146101fe5780636352211e1461022e57806370a082311461025e57806395d89b411461028e576100f5565b8063095ea7b3116100d3578063095ea7b31461017857806317b47cc41461019457806323b872dd146101c657806342842e0e146101e2576100f5565b806301ffc9a7146100fa57806306fdde031461012a578063081812fc14610148575b600080fd5b610114600480360381019061010f9190611b34565b610344565b6040516101219190611f03565b60405180910390f35b610132610426565b60405161013f9190611f1e565b60405180910390f35b610162600480360381019061015d9190611bc7565b6104b8565b60405161016f9190611e9c565b60405180910390f35b610192600480360381019061018d9190611af8565b61053d565b005b6101ae60048036038101906101a99190611bc7565b610655565b6040516101bd9392919061213b565b60405180910390f35b6101e060048036038101906101db91906119f2565b610727565b005b6101fc60048036038101906101f791906119f2565b610787565b005b61021860048036038101906102139190611b86565b6107a7565b6040516102259190612120565b60405180910390f35b61024860048036038101906102439190611bc7565b610893565b6040516102559190611e9c565b60405180910390f35b6102786004803603810190610273919061198d565b610945565b6040516102859190612120565b60405180910390f35b6102966109fd565b6040516102a39190611f1e565b60405180910390f35b6102c660048036038101906102c19190611abc565b610a8f565b005b6102e260048036038101906102dd9190611a41565b610c10565b005b6102fe60048036038101906102f99190611bc7565b610c72565b60405161030b9190611f1e565b60405180910390f35b61032e600480360381019061032991906119b6565b610d62565b60405161033b9190611f03565b60405180910390f35b60007f80ac58cd000000000000000000000000000000000000000000000000000000007bffffffffffffffffffffffffffffffffffffffffffffffffffffffff1916827bffffffffffffffffffffffffffffffffffffffffffffffffffffffff1916148061040f57507f5b5e139f000000000000000000000000000000000000000000000000000000007bffffffffffffffffffffffffffffffffffffffffffffffffffffffff1916827bffffffffffffffffffffffffffffffffffffffffffffffffffffffff1916145b8061041f575061041e82610df6565b5b9050919050565b60606000805461043590612378565b80601f016020809104026020016040519081016040528092919081815260200182805461046190612378565b80156104ae5780601f10610483576101008083540402835291602001916104ae565b820191906000526020600020905b81548152906001019060200180831161049157829003601f168201915b5050505050905090565b60006104c382610e60565b610502576040517f08c379a00000000000000000000000000000000000000000000000000000000081526004016104f990612080565b60405180910390fd5b6004600083815260200190815260200160002060009054906101000a900473ffffffffffffffffffffffffffffffffffffffff169050919050565b600061054882610893565b90508073ffffffffffffffffffffffffffffffffffffffff168373ffffffffffffffffffffffffffffffffffffffff1614156105b9576040517f08c379a00000000000000000000000000000000000000000000000000000000081526004016105b0906120e0565b60405180910390fd5b8073ffffffffffffffffffffffffffffffffffffffff166105d8610ecc565b73ffffffffffffffffffffffffffffffffffffffff161480610607575061060681610601610ecc565b610d62565b5b610646576040517f08c379a000000000000000000000000000000000000000000000000000000000815260040161063d90611fe0565b60405180910390fd5b6106508383610ed4565b505050565b60086020528060005260406000206000915090508060000154908060010160009054906101000a900473ffffffffffffffffffffffffffffffffffffffff16908060020180546106a490612378565b80601f01602080910402602001604051908101604052809291908181526020018280546106d090612378565b801561071d5780601f106106f25761010080835404028352916020019161071d565b820191906000526020600020905b81548152906001019060200180831161070057829003601f168201915b5050505050905083565b610738610732610ecc565b82610f8d565b610777576040517f08c379a000000000000000000000000000000000000000000000000000000000815260040161076e90612100565b60405180910390fd5b61078283838361106b565b505050565b6107a283838360405180602001604052806000815250610c10565b505050565b60006107b360076112c7565b60006107bf60076112dd565b90506107cb33826112eb565b60405180606001604052808281526020013373ffffffffffffffffffffffffffffffffffffffff16815260200184815250600860008381526020019081526020016000206000820151816000015560208201518160010160006101000a81548173ffffffffffffffffffffffffffffffffffffffff021916908373ffffffffffffffffffffffffffffffffffffffff160217905550604082015181600201908051906020019061087c9291906117b1565b5090505061088a8184611309565b80915050919050565b6000806002600084815260200190815260200160002060009054906101000a900473ffffffffffffffffffffffffffffffffffffffff169050600073ffffffffffffffffffffffffffffffffffffffff168173ffffffffffffffffffffffffffffffffffffffff16141561093c576040517f08c379a000000000000000000000000000000000000000000000000000000000815260040161093390612020565b60405180910390fd5b80915050919050565b60008073ffffffffffffffffffffffffffffffffffffffff168273ffffffffffffffffffffffffffffffffffffffff1614156109b6576040517f08c379a00000000000000000000000000000000000000000000000000000000081526004016109ad90612000565b60405180910390fd5b600360008373ffffffffffffffffffffffffffffffffffffffff1673ffffffffffffffffffffffffffffffffffffffff168152602001908152602001600020549050919050565b606060018054610a0c90612378565b80601f0160208091040260200160405190810160405280929190818152602001828054610a3890612378565b8015610a855780601f10610a5a57610100808354040283529160200191610a85565b820191906000526020600020905b815481529060010190602001808311610a6857829003601f168201915b5050505050905090565b610a97610ecc565b73ffffffffffffffffffffffffffffffffffffffff168273ffffffffffffffffffffffffffffffffffffffff161415610b05576040517f08c379a0000000000000000000000000000000000000000000000000000000008152600401610afc90611fa0565b60405180910390fd5b8060056000610b12610ecc565b73ffffffffffffffffffffffffffffffffffffffff1673ffffffffffffffffffffffffffffffffffffffff16815260200190815260200160002060008473ffffffffffffffffffffffffffffffffffffffff1673ffffffffffffffffffffffffffffffffffffffff16815260200190815260200160002060006101000a81548160ff0219169083151502179055508173ffffffffffffffffffffffffffffffffffffffff16610bbf610ecc565b73ffffffffffffffffffffffffffffffffffffffff167f17307eab39ab6107e8899845ad3d59bd9653f200f220920489ca2b5937696c3183604051610c049190611f03565b60405180910390a35050565b610c21610c1b610ecc565b83610f8d565b610c60576040517f08c379a0000000000000000000000000000000000000000000000000000000008152600401610c5790612100565b60405180910390fd5b610c6c8484848461137d565b50505050565b6060610c7d82610e60565b610cbc576040517f08c379a0000000000000000000000000000000000000000000000000000000008152600401610cb3906120c0565b60405180910390fd5b600860008381526020019081526020016000206002018054610cdd90612378565b80601f0160208091040260200160405190810160405280929190818152602001828054610d0990612378565b8015610d565780601f10610d2b57610100808354040283529160200191610d56565b820191906000526020600020905b815481529060010190602001808311610d3957829003601f168201915b50505050509050919050565b6000600560008473ffffffffffffffffffffffffffffffffffffffff1673ffffffffffffffffffffffffffffffffffffffff16815260200190815260200160002060008373ffffffffffffffffffffffffffffffffffffffff1673ffffffffffffffffffffffffffffffffffffffff16815260200190815260200160002060009054906101000a900460ff16905092915050565b60007f01ffc9a7000000000000000000000000000000000000000000000000000000007bffffffffffffffffffffffffffffffffffffffffffffffffffffffff1916827bffffffffffffffffffffffffffffffffffffffffffffffffffffffff1916149050919050565b60008073ffffffffffffffffffffffffffffffffffffffff166002600084815260200190815260200160002060009054906101000a900473ffffffffffffffffffffffffffffffffffffffff1673ffffffffffffffffffffffffffffffffffffffff1614159050919050565b600033905090565b816004600083815260200190815260200160002060006101000a81548173ffffffffffffffffffffffffffffffffffffffff021916908373ffffffffffffffffffffffffffffffffffffffff160217905550808273ffffffffffffffffffffffffffffffffffffffff16610f4783610893565b73ffffffffffffffffffffffffffffffffffffffff167f8c5be1e5ebec7d5bd14f71427d1e84f3dd0314c0f7b2291e5b200ac8c7c3b92560405160405180910390a45050565b6000610f9882610e60565b610fd7576040517f08c379a0000000000000000000000000000000000000000000000000000000008152600401610fce90611fc0565b60405180910390fd5b6000610fe283610893565b90508073ffffffffffffffffffffffffffffffffffffffff168473ffffffffffffffffffffffffffffffffffffffff16148061105157508373ffffffffffffffffffffffffffffffffffffffff16611039846104b8565b73ffffffffffffffffffffffffffffffffffffffff16145b8061106257506110618185610d62565b5b91505092915050565b8273ffffffffffffffffffffffffffffffffffffffff1661108b82610893565b73ffffffffffffffffffffffffffffffffffffffff16146110e1576040517f08c379a00000000000000000000000000000000000000000000000000000000081526004016110d8906120a0565b60405180910390fd5b600073ffffffffffffffffffffffffffffffffffffffff168273ffffffffffffffffffffffffffffffffffffffff161415611151576040517f08c379a000000000000000000000000000000000000000000000000000000000815260040161114890611f80565b60405180910390fd5b61115c8383836113d9565b611167600082610ed4565b6001600360008573ffffffffffffffffffffffffffffffffffffffff1673ffffffffffffffffffffffffffffffffffffffff16815260200190815260200160002060008282546111b7919061228e565b925050819055506001600360008473ffffffffffffffffffffffffffffffffffffffff1673ffffffffffffffffffffffffffffffffffffffff168152602001908152602001600020600082825461120e9190612238565b92505081905550816002600083815260200190815260200160002060006101000a81548173ffffffffffffffffffffffffffffffffffffffff021916908373ffffffffffffffffffffffffffffffffffffffff160217905550808273ffffffffffffffffffffffffffffffffffffffff168473ffffffffffffffffffffffffffffffffffffffff167fddf252ad1be2c89b69c2b068fc378daa952ba7f163c4a11628f55a4df523b3ef60405160405180910390a4505050565b6001816000016000828254019250508190555050565b600081600001549050919050565b6113058282604051806020016040528060008152506113de565b5050565b61131282610e60565b611351576040517f08c379a000000000000000000000000000000000000000000000000000000000815260040161134890612040565b60405180910390fd5b806006600084815260200190815260200160002090805190602001906113789291906117b1565b505050565b61138884848461106b565b61139484848484611439565b6113d3576040517f08c379a00000000000000000000000000000000000000000000000000000000081526004016113ca90611f40565b60405180910390fd5b50505050565b505050565b6113e883836115d0565b6113f56000848484611439565b611434576040517f08c379a000000000000000000000000000000000000000000000000000000000815260040161142b90611f40565b60405180910390fd5b505050565b600061145a8473ffffffffffffffffffffffffffffffffffffffff1661179e565b156115c3578373ffffffffffffffffffffffffffffffffffffffff1663150b7a02611483610ecc565b8786866040518563ffffffff1660e01b81526004016114a59493929190611eb7565b602060405180830381600087803b1580156114bf57600080fd5b505af19250505080156114f057506040513d601f19601f820116820180604052508101906114ed9190611b5d565b60015b611573573d8060008114611520576040519150601f19603f3d011682016040523d82523d6000602084013e611525565b606091505b5060008151141561156b576040517f08c379a000000000000000000000000000000000000000000000000000000000815260040161156290611f40565b60405180910390fd5b805181602001fd5b63150b7a0260e01b7bffffffffffffffffffffffffffffffffffffffffffffffffffffffff1916817bffffffffffffffffffffffffffffffffffffffffffffffffffffffff1916149150506115c8565b600190505b949350505050565b600073ffffffffffffffffffffffffffffffffffffffff168273ffffffffffffffffffffffffffffffffffffffff161415611640576040517f08c379a000000000000000000000000000000000000000000000000000000000815260040161163790612060565b60405180910390fd5b61164981610e60565b15611689576040517f08c379a000000000000000000000000000000000000000000000000000000000815260040161168090611f60565b60405180910390fd5b611695600083836113d9565b6001600360008473ffffffffffffffffffffffffffffffffffffffff1673ffffffffffffffffffffffffffffffffffffffff16815260200190815260200160002060008282546116e59190612238565b92505081905550816002600083815260200190815260200160002060006101000a81548173ffffffffffffffffffffffffffffffffffffffff021916908373ffffffffffffffffffffffffffffffffffffffff160217905550808273ffffffffffffffffffffffffffffffffffffffff16600073ffffffffffffffffffffffffffffffffffffffff167fddf252ad1be2c89b69c2b068fc378daa952ba7f163c4a11628f55a4df523b3ef60405160405180910390a45050565b600080823b905060008111915050919050565b8280546117bd90612378565b90600052602060002090601f0160209004810192826117df5760008555611826565b82601f106117f857805160ff1916838001178555611826565b82800160010185558215611826579182015b8281111561182557825182559160200191906001019061180a565b5b5090506118339190611837565b5090565b5b80821115611850576000816000905550600101611838565b5090565b60006118676118628461219e565b612179565b90508281526020810184848401111561187f57600080fd5b61188a848285612336565b509392505050565b60006118a56118a0846121cf565b612179565b9050828152602081018484840111156118bd57600080fd5b6118c8848285612336565b509392505050565b6000813590506118df816128a8565b92915050565b6000813590506118f4816128bf565b92915050565b600081359050611909816128d6565b92915050565b60008151905061191e816128d6565b92915050565b600082601f83011261193557600080fd5b8135611945848260208601611854565b91505092915050565b600082601f83011261195f57600080fd5b813561196f848260208601611892565b91505092915050565b600081359050611987816128ed565b92915050565b60006020828403121561199f57600080fd5b60006119ad848285016118d0565b91505092915050565b600080604083850312156119c957600080fd5b60006119d7858286016118d0565b92505060206119e8858286016118d0565b9150509250929050565b600080600060608486031215611a0757600080fd5b6000611a15868287016118d0565b9350506020611a26868287016118d0565b9250506040611a3786828701611978565b9150509250925092565b60008060008060808587031215611a5757600080fd5b6000611a65878288016118d0565b9450506020611a76878288016118d0565b9350506040611a8787828801611978565b925050606085013567ffffffffffffffff811115611aa457600080fd5b611ab087828801611924565b91505092959194509250565b60008060408385031215611acf57600080fd5b6000611add858286016118d0565b9250506020611aee858286016118e5565b9150509250929050565b60008060408385031215611b0b57600080fd5b6000611b19858286016118d0565b9250506020611b2a85828601611978565b9150509250929050565b600060208284031215611b4657600080fd5b6000611b54848285016118fa565b91505092915050565b600060208284031215611b6f57600080fd5b6000611b7d8482850161190f565b91505092915050565b600060208284031215611b9857600080fd5b600082013567ffffffffffffffff811115611bb257600080fd5b611bbe8482850161194e565b91505092915050565b600060208284031215611bd957600080fd5b6000611be784828501611978565b91505092915050565b611bf9816122c2565b82525050565b611c08816122d4565b82525050565b6000611c1982612200565b611c238185612216565b9350611c33818560208601612345565b611c3c81612468565b840191505092915050565b6000611c528261220b565b611c5c8185612227565b9350611c6c818560208601612345565b611c7581612468565b840191505092915050565b6000611c8d603283612227565b9150611c9882612479565b604082019050919050565b6000611cb0601c83612227565b9150611cbb826124c8565b602082019050919050565b6000611cd3602483612227565b9150611cde826124f1565b604082019050919050565b6000611cf6601983612227565b9150611d0182612540565b602082019050919050565b6000611d19602c83612227565b9150611d2482612569565b604082019050919050565b6000611d3c603883612227565b9150611d47826125b8565b604082019050919050565b6000611d5f602a83612227565b9150611d6a82612607565b604082019050919050565b6000611d82602983612227565b9150611d8d82612656565b604082019050919050565b6000611da5602e83612227565b9150611db0826126a5565b604082019050919050565b6000611dc8602083612227565b9150611dd3826126f4565b602082019050919050565b6000611deb602c83612227565b9150611df68261271d565b604082019050919050565b6000611e0e602983612227565b9150611e198261276c565b604082019050919050565b6000611e31602f83612227565b9150611e3c826127bb565b604082019050919050565b6000611e54602183612227565b9150611e5f8261280a565b604082019050919050565b6000611e77603183612227565b9150611e8282612859565b604082019050919050565b611e968161232c565b82525050565b6000602082019050611eb16000830184611bf0565b92915050565b6000608082019050611ecc6000830187611bf0565b611ed96020830186611bf0565b611ee66040830185611e8d565b8181036060830152611ef88184611c0e565b905095945050505050565b6000602082019050611f186000830184611bff565b92915050565b60006020820190508181036000830152611f388184611c47565b905092915050565b60006020820190508181036000830152611f5981611c80565b9050919050565b60006020820190508181036000830152611f7981611ca3565b9050919050565b60006020820190508181036000830152611f9981611cc6565b9050919050565b60006020820190508181036000830152611fb981611ce9565b9050919050565b60006020820190508181036000830152611fd981611d0c565b9050919050565b60006020820190508181036000830152611ff981611d2f565b9050919050565b6000602082019050818103600083015261201981611d52565b9050919050565b6000602082019050818103600083015261203981611d75565b9050919050565b6000602082019050818103600083015261205981611d98565b9050919050565b6000602082019050818103600083015261207981611dbb565b9050919050565b6000602082019050818103600083015261209981611dde565b9050919050565b600060208201905081810360008301526120b981611e01565b9050919050565b600060208201905081810360008301526120d981611e24565b9050919050565b600060208201905081810360008301526120f981611e47565b9050919050565b6000602082019050818103600083015261211981611e6a565b9050919050565b60006020820190506121356000830184611e8d565b92915050565b60006060820190506121506000830186611e8d565b61215d6020830185611bf0565b818103604083015261216f8184611c47565b9050949350505050565b6000612183612194565b905061218f82826123aa565b919050565b6000604051905090565b600067ffffffffffffffff8211156121b9576121b8612439565b5b6121c282612468565b9050602081019050919050565b600067ffffffffffffffff8211156121ea576121e9612439565b5b6121f382612468565b9050602081019050919050565b600081519050919050565b600081519050919050565b600082825260208201905092915050565b600082825260208201905092915050565b60006122438261232c565b915061224e8361232c565b9250827fffffffffffffffffffffffffffffffffffffffffffffffffffffffffffffffff03821115612283576122826123db565b5b828201905092915050565b60006122998261232c565b91506122a48361232c565b9250828210156122b7576122b66123db565b5b828203905092915050565b60006122cd8261230c565b9050919050565b60008115159050919050565b60007fffffffff0000000000000000000000000000000000000000000000000000000082169050919050565b600073ffffffffffffffffffffffffffffffffffffffff82169050919050565b6000819050919050565b82818337600083830152505050565b60005b83811015612363578082015181840152602081019050612348565b83811115612372576000848401525b50505050565b6000600282049050600182168061239057607f821691505b602082108114156123a4576123a361240a565b5b50919050565b6123b382612468565b810181811067ffffffffffffffff821117156123d2576123d1612439565b5b80604052505050565b7f4e487b7100000000000000000000000000000000000000000000000000000000600052601160045260246000fd5b7f4e487b7100000000000000000000000000000000000000000000000000000000600052602260045260246000fd5b7f4e487b7100000000000000000000000000000000000000000000000000000000600052604160045260246000fd5b6000601f19601f8301169050919050565b7f4552433732313a207472616e7366657220746f206e6f6e20455243373231526560008201527f63656976657220696d706c656d656e7465720000000000000000000000000000602082015250565b7f4552433732313a20746f6b656e20616c7265616479206d696e74656400000000600082015250565b7f4552433732313a207472616e7366657220746f20746865207a65726f2061646460008201527f7265737300000000000000000000000000000000000000000000000000000000602082015250565b7f4552433732313a20617070726f766520746f2063616c6c657200000000000000600082015250565b7f4552433732313a206f70657261746f7220717565727920666f72206e6f6e657860008201527f697374656e7420746f6b656e0000000000000000000000000000000000000000602082015250565b7f4552433732313a20617070726f76652063616c6c6572206973206e6f74206f7760008201527f6e6572206e6f7220617070726f76656420666f7220616c6c0000000000000000602082015250565b7f4552433732313a2062616c616e636520717565727920666f7220746865207a6560008201527f726f206164647265737300000000000000000000000000000000000000000000602082015250565b7f4552433732313a206f776e657220717565727920666f72206e6f6e657869737460008201527f656e7420746f6b656e0000000000000000000000000000000000000000000000602082015250565b7f45524337323155524953746f726167653a2055524920736574206f66206e6f6e60008201527f6578697374656e7420746f6b656e000000000000000000000000000000000000602082015250565b7f4552433732313a206d696e7420746f20746865207a65726f2061646472657373600082015250565b7f4552433732313a20617070726f76656420717565727920666f72206e6f6e657860008201527f697374656e7420746f6b656e0000000000000000000000000000000000000000602082015250565b7f4552433732313a207472616e73666572206f6620746f6b656e2074686174206960008201527f73206e6f74206f776e0000000000000000000000000000000000000000000000602082015250565b7f4552433732314d657461646174613a2055524920717565727920666f72206e6f60008201527f6e6578697374656e7420746f6b656e0000000000000000000000000000000000602082015250565b7f4552433732313a20617070726f76616c20746f2063757272656e74206f776e6560008201527f7200000000000000000000000000000000000000000000000000000000000000602082015250565b7f4552433732313a207472616e736665722063616c6c6572206973206e6f74206f60008201527f776e6572206e6f7220617070726f766564000000000000000000000000000000602082015250565b6128b1816122c2565b81146128bc57600080fd5b50565b6128c8816122d4565b81146128d357600080fd5b50565b6128df816122e0565b81146128ea57600080fd5b50565b6128f68161232c565b811461290157600080fd5b5056fea26469706673582212203d265fa16f4d52b8452d0afcad73e8a4bd6048581fd65c740e2ca2e0c163e21864736f6c63430008030033",
  "immutableReferences": {},
  "source": "// SPDX-License-Identifier: MIT OR Apache-2.0\npragma solidity ^0.8.3;\n\nimport \"../node_modules/@openzeppelin/contracts/utils/Counters.sol\";\nimport \"../node_modules/@openzeppelin/contracts/token/ERC721/extensions/ERC721URIStorage.sol\";\nimport \"../node_modules/@openzeppelin/contracts/token/ERC721/ERC721.sol\";\n\ncontract spaceFART is ERC721URIStorage {\n    using Counters for Counters.Counter;\n    Counters.Counter private _tokenIds;\n\n    constructor() ERC721(\"spaceFART\", \"spaceFART\") {\n    }\n    struct Item {\n        uint256 id;\n        address creator;\n        string uri;\n    }\n    mapping (uint256 => Item) public Items;\n\n    \n\n    function createToken(string memory uri) public returns (uint) {\n        _tokenIds.increment();\n        uint256 newItemId = _tokenIds.current();\n        _safeMint(msg.sender, newItemId);\n\n        Items[newItemId] = Item(newItemId, msg.sender, uri);\n\n        _setTokenURI(newItemId, uri); // vr\n        return newItemId;\n    }\n    function tokenURI(uint256 tokenId) public view override returns (string memory) {\n        require(_exists(tokenId), \"ERC721Metadata: URI query for nonexistent token\");\n        return Items[tokenId].uri;\n    }\n}",
  "sourcePath": "/Users/oai/token/nft/spaceFART/contracts/contracts/spaceFART.sol",
  "compiler": {
    "name": "solc",
    "version": "0.8.3+commit.8d00100c.Emscripten.clang"
  },
  "schemaVersion": "3.2.3",
  "updatedAt": "2021-09-23T07:11:02.588Z",
  "networkType": "ethereum",
  "devdoc": {
    "kind": "dev",
    "methods": {
      "approve(address,uint256)": {
        "details": "See {IERC721-approve}."
      },
      "balanceOf(address)": {
        "details": "See {IERC721-balanceOf}."
      },
      "getApproved(uint256)": {
        "details": "See {IERC721-getApproved}."
      },
      "isApprovedForAll(address,address)": {
        "details": "See {IERC721-isApprovedForAll}."
      },
      "name()": {
        "details": "See {IERC721Metadata-name}."
      },
      "ownerOf(uint256)": {
        "details": "See {IERC721-ownerOf}."
      },
      "safeTransferFrom(address,address,uint256)": {
        "details": "See {IERC721-safeTransferFrom}."
      },
      "safeTransferFrom(address,address,uint256,bytes)": {
        "details": "See {IERC721-safeTransferFrom}."
      },
      "setApprovalForAll(address,bool)": {
        "details": "See {IERC721-setApprovalForAll}."
      },
      "supportsInterface(bytes4)": {
        "details": "See {IERC165-supportsInterface}."
      },
      "symbol()": {
        "details": "See {IERC721Metadata-symbol}."
      },
      "tokenURI(uint256)": {
        "details": "See {IERC721Metadata-tokenURI}."
      },
      "transferFrom(address,address,uint256)": {
        "details": "See {IERC721-transferFrom}."
      }
    },
    "version": 1
  },
  "userdoc": {
    "kind": "user",
    "methods": {},
    "version": 1
  }
}